:100000000C945D000C9415090C9415090C941509B9
:100010000C9415090C9432030C9496040C94150955
:100020000C9465080C94C6040C9415090C941509DD
:100030000C9415090C9415090C9479030C9415096A
:100040000C9415090C9415090C9415090C941509B8
:100050000C9415090C9415090C9415090C941509A8
:100060000C94F9030C9415090C9436040C94660452
:100070000C9415090C9415090C946A080C94150934
:100080000C9415090C9415090C9415090C946F081F
:100090000C9415090C9415090C9415090C94150968
:1000A0000C9415090C9415094000402C80402C40FC
:1000B0002D001248402D402F8000809101108F7C30
:1000C0008060806898ED94BF8093011011241FBE5A
:1000D000CFEFCDBFDFE7DEBFE8EAF0E040E019C0D8
:1000E000B791A79137912791079107FD0EC097917E
:1000F0008791EF01F92FE82F0BBF07900D92A21700
:10010000B307D9F7FE011BBE04C01D92A217B307A7
:10011000E1F7E93BF40721F70E9492000C941F07D6
:04012000F894FFCF81
:100124000E9460060E9448068DEF96E00E943808FF
:1001340086E292E00E94D8088FEF98E00E945B0864
:100144000E94040810920A0B10920B0B0E943D07A8
:100154008FE493EC0197F1F700C000000E94FE07C2
:1001640010921E4010921F406894FF24F1F8EE2470
:10017400E3940F2EF3E0DF2EF02D00E016E0C0E54F
:10018400D0E080912640882351F0F89410922640C4
:10019400789480912440811102C0F092244080918F
:1001A4002840882369F0F89410922840789480912C
:1001B4002740882319F00E943D0702C00E942A07A5
:1001C40080912540813009F447C038F0823009F429
:1001D40081C0833009F49DC0D4CF0E94F6058823E2
:1001E40021F080912440882359F180912440833068
:1001F40039F1843061F1823009F0C3CF10921E408E
:1002040010921F4080912A40882389F010922A403E
:1002140010921C4010921D40E092294010921A4006
:1002240010921B400E942A07F092254004C00E94AD
:100234002A07E09225400E94F00610922440A1CFA4
:1002440010921E4010921F40109224409ACFD092D8
:1002540025401092244095CF10921E4010921F40CA
:100264000E94F605882339F080912440811103C04F
:10027400D09224400FC080912440823031F08330EA
:1002840049F0813009F07DCF18C00E94F006109229
:10029400244077CF10922A4010921C4010921D40A7
:1002A400E092294010921A4010921B40F09225408F
:1002B4000E94F0061092244064CF109229400E94BC
:1002C4003D071092254010921E4010921F4010923C
:1002D400244057CF10921E4010921F400E94F605F2
:1002E40080912440813041F0823009F04ACF0E944D
:1002F400F0061092244045CF109229400E943D07F9
:100304001092254010921E4010921F4010922440DB
:1003140038CF109229400E943D07EFE1FEE4319767
:10032400F1F700C00000F8018281807F8D60828334
:1003340010922440109226408881897F84608883AB
:100344008881816088837894889588818E7F88836A
:100354008281807F828310921E4010921F401092EF
:10036400204010922140109226401092254009CF3F
:10037400CF93DF9380E094E0FC011482C0E4D4E0E6
:100384001C82A0E6B4E022E014962C93149740EA71
:1003940054E0FA011482FC01108218822C93FA01B1
:1003A4001082FC01108A118A128A138A148A158A0F
:1003B400168A178A188A198A1A8A1B8A1C8A1D8A1D
:1003C4001E8A1F8A50961C92509751961C925197E0
:1003D40052962C93529753961C92539754961C9270
:1003E400549755961C92559756961C925697579625
:1003F4001C92FA01108A118A128A138A148A158AA5
:10040400168A178AE0EEF5E01186118210821482B2
:1004140083E086831782108615821282128689E110
:1004240099E080930C4090930D408AE199E0809389
:100434000A4090930B408BE199E08093084090939D
:080444000940DF91CF910895FA
:10044C008091204090912140019680932040909380
:10045C00214080912A408823B1F080911C409091DA
:10046C001D40019680931C4090931D4080911C4030
:10047C0090911D408639910530F010921C401092DD
:10048C001D4010922A40809129408823B1F0809120
:10049C001A4090911B40019680931A4090931B40F8
:1004AC0080911A4090911B40499738F010921A4055
:1004BC0010921B4081E080932840809120409091C5
:1004CC0021408A3F910538F0109220401092214033
:1004DC0081E08093244080912540811117C0809148
:1004EC001E4090911F40019680931E4090931F4098
:1004FC0080911E4090911F40883B9B4038F0109299
:0E050C001E4010921F4084E08093244008950A
:10051A0080912E40813031F0E0E0FAE080818E7FD8
:10052A00808308958091004090910140A0910240FB
:10053A00B091034030912D4020912C40222399F014
:10054A0004C0B695A795979587953A95D2F780FFF7
:10055A0004C082E08093660403C082E0809365044D
:10056A0010922C40089580912D4081110BC082E099
:10057A0080936604E0E0FAE080818E7F80831092A7
:10058A002E40089580912D40815080932D4081E026
:10059A0080932C408091004090910140A0910240AC
:1005AA00B091034020912D4004C0B695A795979528
:1005BA0087952A95D2F780FF04C082E0809365046C
:0A05CA00089582E08093660408950E
:1005D40040E068ED80E690E00E94510840E068ED5C
:1005E40081E690E00E94510840E068ED88E790E0E1
:1005F4000E9451084CE068ED88E690E00E945108A2
:1006040040E068ED89E690E00E94510840E068ED22
:1006140080E790E00E94510840E068ED8CE790E0AC
:100624000E94510840E068ED82E690E00E94510883
:1006340040E068ED83E690E00E94510840E068EDF8
:1006440084E690E00E94510840E068ED80E890E084
:100654000E945108E0E6F0E0858181FFFDCF089516
:100664001F920F920FB60F9211240BB60F922F9375
:100674003F934F935F936F937F938F939F93AF9326
:10068400BF93EF93FF938091420180FF0BC0809151
:10069400430180FF07C0E0911240F091134030976E
:1006A40009F009958091420181FF0BC080914301BB
:1006B40081FF07C0E0911040F0911140309709F09C
:1006C400099583E080934301FF91EF91BF91AF912E
:1006D4009F918F917F916F915F914F913F912F9156
:0E06E4000F900BBE0F900FBE0F901F90189539
:1006F2001F920F920FB60F9211240BB60F922F93E7
:100702003F934F935F936F937F938F939F93AF9397
:10071200BF93EF93FF938091060B80FF0AC0E09195
:100722001640F0911740309709F0099581E08093C7
:10073200060B8091060B81FF0AC0E0911840F091F0
:100742001940309709F0099582E08093060BFF91DA
:10075200EF91BF91AF919F918F917F916F915F9137
:100762004F913F912F910F900BBE0F900FBE0F90A4
:040772001F90189527
:10077600E0E0F2E086E0808B118A128A138A148AFE
:10078600158A81E084A710A211A212A213A214A2B4
:1007960015A216A217A215A617A610AA12AA12AE7D
:1007A60013AE16AE17AE109240021092410214AA72
:1007B60015AA168A178A10924202109243021092C4
:1007C60048021092490216AA10924B0210924D024C
:1007D60010924C0210924A0210924F02109251024D
:0C07E6001092500210924E0280E0089524
:1007F2001F920F920FB60F9211240BB60F922F93E6
:100802003F934F935F936F937F938F939F93AF9396
:10081200BF93EF93FF937B9B05C0E0910C40F09157
:100822000D4009957A9B05C0E0910A40F0910B407A
:100832000995799B05C0E0910840F091094009951E
:100842008FEF8FB9FF91EF91BF91AF919F918F91F0
:100852007F916F915F914F913F912F910F900BBEBE
:0A0862000F900FBE0F901F90189525
:10086C001F920F920FB60F9211240BB60F922F936B
:10087C003F934F935F936F937F938F939F93AF931C
:10088C00BF93EF93FF9381E080930D06E0910640B8
:10089C00F0910740309709F00995FF91EF91BF91C6
:1008AC00AF919F918F917F916F915F914F913F91FC
:1008BC002F910F900BBE0F900FBE0F901F9018959D
:1008CC001F920F920FB60F9211240BB60F922F930B
:1008DC003F934F935F936F937F938F939F93AF93BC
:1008EC00BF93EF93FF9382E080930D06E091044059
:1008FC00F0910540309709F00995FF91EF91BF9168
:10090C00AF919F918F917F916F915F914F913F919B
:10091C002F910F900BBE0F900FBE0F901F9018953C
:10092C001F920F920FB60F9211240BB60F922F93AA
:10093C003F934F935F936F937F938F939F93AF935B
:10094C00BF93EF93FF93E0910E40F0910F403097DF
:10095C0009F0099581E080935301FF91EF91BF91CC
:10096C00AF919F918F917F916F915F914F913F913B
:10097C002F910F900BBE0F900FBE0F901F901895DC
:10098C001F920F920FB60F9211240BB60F922F934A
:10099C003F934F935F936F937F938F939F93AF93FB
:1009AC00BF93EF93FF93E0911440F0911540309773
:1009BC0009F0099581E080930B0AFF91EF91BF91AB
:1009CC00AF919F918F917F916F915F914F913F91DB
:1009DC002F910F900BBE0F900FBE0F901F9018957C
:1009EC00E0E0F6E080818E7F808384858C7F848735
:1009FC0083E08587109206401092074010920440C5
:100A0C0010920540118298E0928313821482158211
:100A1C00808780E48187128681E083871686148A1A
:0C0A2C00158A128A138A8487808308953B
:100A3800282F90912E409130E1F3862F90E0A0E08E
:100A4800B0E0A160922B8093004090930140A09366
:100A58000240B093034080E180932D4081E0809371
:100A68002C4080932E4092E090936504E0E0FAE0F9
:080A780010A211A28083089571
:100A8000CF93DF93C82FD62F0E941C0580912E4054
:100A90008130E1F38BEA9DE00197F1F700C000009F
:100AA0006D2F8C2F0E941C0580912E408130E1F328
:100AB0008BEA9DE00197F1F700C00000DF91CF9134
:020AC000089597
:100AC200E0E0FBE080818E7F8083118210861482B9
:100AD20080E593EC848795871286138616828FE1D0
:100AE20099E0809318409093194080E299E08093B6
:0E0AF20016409093174083E08583808308951B
:100B0000E0E4F1E081818111FDCFE0E4F1E08FEFDD
:100B10009FE1848795871086118681E090E0828727
:100B2000938717828283158281E180838189811175
:0C0B3000FDCFE0E4F1E0128A158A089580
:100B3C00482F653608F064E68EEF689F900111240B
:100B4C003695279536952795ABE7B4E10E94AB0611
:100B5C0096958795440F4E71682F842F80680E945C
:0C0B6C001C0580912E408130E1F30895BB
:100B7800E0E0FAE010A611A612A613A614A615A680
:100B880010A211A211821282138214821582168277
:100B980017821686118681E08287138627E03AE15C
:0A0BA80026A337A317868083089563
:100BB200E0E0FAE080818E7F8083108211821282CF
:100BC200138210A211A28FEF9FEF86A397A310A604
:100BD20011A612A613A614A615A6118615821482B2
:0A0BE2001782168212868387089599
:100BEC0080912B408823B9F0809122409091234032
:100BFC0010922B40929582958F7089279F70892730
:100C0C00873E40F081E080932A4010921C40109265
:080C1C001D40089580E00895D9
:100C2400482F653608F064E68EEF689F9001112422
:100C34003695279536952795ABE7B4E10E94AB0628
:100C440096958795682F842F880F0E941C058091A4
:080C54002E408130E1F3089508
:100C5C00853608F084E69EEF899F90011124369525
:100C6C00279536952795ABE7B4E10E94AB06969590
:100C7C008795682F8EEF0E941C0580912E40813045
:040C8C00E1F30895F3
:100C9000E0E0FAE0108211821282138281E0828702
:100CA00081E896E086A397A310A211A28DE892E0B6
:100CB0000E94BA08E0E6F4E082E08183868308952A
:100CC0000E94EA020E94BA010E94F6040E94BC053A
:100CD0000E9461050E94BB030E9480050E94C80615
:0A0CE0000E9456070E94E3060895E3
:100CEA00E0E0F6E0108214861586118212821382E1
:100CFA001482158210861186128613861686148A25
:080D0A00158A128A138A08956C
:100D1200E0E0FBE080818E7F808314861586128658
:100D220013861182108614821582118610828FEF2B
:040D32008683089517
:100D3600823030F0833021F09BEF980F933038F4F7
:100D4600E0E0FAE09181987F8770892B818308958E
:100D5600A29FB001B39FC001A39F700D811D1124F6
:0E0D6600911DB29F700D811D1124911D0895E5
:100D7400E0E0F6E08087828581608287828580FD5D
:0C0D8400FDCF809110069091110608959B
:100D900045E068ED80E590E00E94510840E068ED94
:0C0DA00081E590E00E94510880E0089579
:100DAC00811103C01092010608958091010687708D
:0A0DBC0019F481E080930106089508
:100DC60040E068ED80E191E00E945108E0E1F1E049
:0A0DD60012821382789480E00895E1
:100DE00010922040109221400E94040810920A0B99
:0A0DF00010920B0B0E94FE070895FD
:100DFA00809110069091110680932240909323408F
:080E0A0081E080932B40089564
:100E12009C01E0E4F1E0918191FDFDCF2093480136
:060E220030934901089520
:100E28009C01E0E4F1E0918192FDFDCF20934A011D
:060E380030934B01089508
:100E3E00EC010E9422090E942109CE010E94230981
:060E4E00CE010E9417090D
:100E54000E946D078111FCCF0E94DD0881E0809320
:040E64002740089586
:100E6800409162004E7F68ED82E690E00E94510852
:020E78000895DB
:100E7A000E946D078111FCCF0E94E2081092274060
:020E8A000895C9
:100E8C008091000682FD02C08CE008958AE00895EE
:100E9C00482F416068ED82E690E00E945108089569
:100EAC00E0EBF0E0148285E08083128280E008950C
:100EBC00803128F460E4680F8FEF0E94400508959C
:0E0ECC00609110067091110680E090E008958C
:0E0EDA0090912E4081E0913009F080E0089563
:0C0EE800E0E0F6E08081816080830895E6
:0C0EF400E0E0F6E080818E7F80830895AE
:0C0F0000E0E0F6E08285816082870895C1
:0C0F0C00E0E0F6E08485816084870895B1
:0C0F1800E0E0F6E084858E7F8487089579
:0C0F2400E0E0F6E082858260828708959C
:0C0F3000E0E0F6E084858260848708958C
:0C0F3C00E0E0F6E084858D7F8487089556
:0C0F4800E0E0F6E0808182608083089584
:0C0F5400E0E0F6E080818D7F808308954E
:0C0F6000E0E0F6E083858160838708955F
:0C0F6C00E0E0F6E083858E7F8387089527
:0C0F7800E0E4F1E0808181608083089556
:0C0F8400E0E4F1E080818E7F808308951E
:0C0F9000E0E4F1E0828182608283089539
:0C0F9C00E0E4F1E082818D7F8283089503
:0C0FA800E0E4F1E0828181608283089522
:0C0FB400E0E4F1E082818E7F82830895EA
:0C0FC000E0E4F1E082898160828B0895FA
:0C0FCC00E0E4F1E082898E7F828B0895C2
:0C0FD8009091420181E090FF80E00895BC
:0C0FE400E0E0FAE08081816080830895E5
:0C0FF000E0E0FAE080818E7F80830895AD
:0C0FFC00E0E0FBE08081816080830895CC
:0C100800E0E0FBE080818E7F8083089593
:0C101400E0E0FBE08581816085830895A9
:0C102000E0E0FBE085818E7F8583089571
:0C102C00E0E0FBE0858182608583089590
:0C103800E0E0FBE085818D7F858308955A
:0C1044009091050B81E090FF80E0089582
:0C1050009091050B81E091FF80E0089575
:0A105C0080910A06809581700895C6
:0A1066008091100690911106089584
:0A1070008093064090930740089516
:0A107A008093140690931506089564
:0A108400809312069093130608955E
:0A108E0080930440909305400895FC
:0A10980080910D0686958170089581
:0A10A2001BBEFC0164BF40830895EB
:0A10AC0080930C4090930D400895CE
:0A10B60080930A4090930B400895C8
:0A10C00080930840909309400895C2
:0A10CA008F938FEF83B98F91189573
:0A10D4008F938FEF8BB98F91189561
:0A10DE008F938FEF87BB8F91189559
:0A10E8008093124090931340089586
:0A10F2008093104090931140089580
:0A10FC0080930E4090930F4008957A
:0A110600809148019091490108957D
:0A11100080914A0190914B0108956F
:0A111A0080934C0190934D0108955D
:0A11240080914C0190914D01089557
:0A112E008093200A9093210A08958F
:0A1138008091200A9091210A089589
:0A1142008093260A9093270A08956F
:0A114C008091260A9091270A089569
:0A1156008093280A9093290A089557
:0A11600080932A0A90932B0A089549
:0A116A0080932C0A90932D0A08953B
:0A11740080931440909315400895F5
:0A117E0080930A0B90930B0B089569
:0A11880080910A0B90910B0B089563
:0A11920080930C0B90930D0B089551
:0A119C0080910C0B90910D0B08954B
:0A11A60080931840909319400895BB
:0A11B00080931640909317400895B5
:0A11BA0065E08FEF0E9440050895E4
:0A11C40060E08FEF0E9440050895DF
:0811CE0087708093010608956B
:0811D60080910D06817008955F
:0811DE0081E080930D060895E5
:0811E60082E080930D060895DC
:0811EE0081E0809343010895A4
:0811F60081E780930A0A0895C5
:0811FE0081E080932640089572
:0612060080930806089524
:06120C0080930406089522
:0612120080930002089524
:061218008FEF9FEF089527
:06121E0010920A0A089577
:061224008FEF9FEF08951B
:04122A000C94000020
:04122E000E9490008A
:0212320008951D
:0212340008951B
:02123600089519
:02123800089517
:02123A00089515
:02123C00089513
:02123E00089511
:0212400008950F
:0212420008950D
:0212440008950B
:02124600089509
:0112480001A4
:02000004008278
:090000000000000000C808000027
:00000001FF
