:100000000C9457000C9459050C9459050C945905FF
:100010000C9459050C9412020C94B8030C945905D5
:100020000C9441050C9459050C9459050C945905F0
:100030000C9459050C9459050C9459020C945905CB
:100040000C9459050C9459050C9459050C945905B8
:100050000C9459050C9459050C9459050C945905A8
:100060000C941B030C9459050C9458030C948803AE
:100070000C9459050C9459050C9446050C9459059B
:100080000C9459050C9459050C9459050C944B0586
:100090000C9459050C9459050C9459050C94590568
:1000A0000C9459050C9459054000401F8000809124
:1000B00001108F7C8060806898ED94BF8093011060
:1000C00011241FBECFEFCDBFDFE7DEBFE8EAF0E0CF
:1000D00040E019C0B791A79137912791079107FD8B
:1000E0000EC097918791EF01F92FE82F0BBF079072
:1000F0000D92A217B307D9F7FE011BBE04C01D92D3
:10010000A217B307E1F7ED3AF40721F70E948C003C
:080110000C941305F894FFCFD5
:100118000E94A60487E095E00E9432058BE992E0F0
:100128000E94500585E595E00E943C050E942C053B
:1001380010920A0B10920B0B80E00E94BB040E94E5
:10014800260510921B406894DD24D1F80F2EF3E0A9
:10015800EF2EF02DFF24F39400E016E0C0E5D0E088
:1001680080911740813079F138F0823009F458C015
:10017800833009F473C0F6CF80E00E94BB0410926C
:1001880018400E948C04811114C08091164083305D
:1001980081F0843099F0823019F710921B408091D9
:1001A8001D4081117DC083C00E94FA041092164040
:1001B800D7CF10921B4010921640D2CFE092174032
:1001C80010921640CDCF84E60E94BB0410921840CE
:1001D8000E948C048111E092164010921B4080917D
:1001E8001640823031F0833049F0813009F0B8CFC1
:1001F80010C00E94FA0410921640B2CFD092174055
:1002080010921D4010921A400E94FA041092164053
:10021800A7CF1092174010921B4010921640A0CF03
:10022800F09218400E948C0410921B408091164056
:10023800813041F0823009F093CF0E94FA04109285
:1002480016408ECF109217401092184080E00E94FE
:10025800BB0410921B401092164082CF80E00E948F
:10026800BB0410921840F8018281807F8D608283E0
:10027800109216408881897F846088838881816094
:1002880088837894889588818E7F88838281807F0F
:10029800828310921B4010921C401092174060CF2E
:1002A800D092174010921D4010921A407DCFF092C4
:0402B80017407ACFA2
:1002BC00CF93DF9380E094E0FC011482C0E4D4E09F
:1002CC001C82A0E6B4E014961C92149740EA54E009
:1002DC00FA011482FC011082188222E02C93FA019C
:1002EC001082FC01108A118A128A138A148A158AC8
:1002FC00168A178A188A198A1A8A1B8A1C8A1D8AD6
:10030C001E8A1F8A50961C92509751961C92519798
:10031C0052962C93529753961C92539754961C9228
:10032C00549755961C92559756961C9256975796DD
:10033C001C92FA01108A118A128A138A148A158A5D
:10034C00168A178AE0EEF5E011861182108214826B
:10035C0083E08683178210861582128212868DE5C1
:10036C0095E080930840909309408EE595E080934A
:10037C000640909307408FE595E08093044090935E
:08038C000540DF91CF910895B7
:1003940040E068ED80E690E00E94370540E068EDBB
:1003A40081E690E00E94370540E068ED88E790E040
:1003B4000E9437054CE068ED88E690E00E9437051E
:1003C40040E068ED89E690E00E94370540E068ED82
:1003D40080E790E00E94370540E068ED8CE790E00C
:1003E4000E94370540E068ED82E690E00E94370500
:1003F40040E068ED83E690E00E94370540E068ED58
:1004040084E690E00E94370540E068ED80E890E0E3
:100414000E943705E0E6F0E0858181FFFDCF089575
:100424001F920F920FB60F9211240BB60F922F93B7
:100434003F934F935F936F937F938F939F93AF9368
:10044400BF93EF93FF938091420180FF0BC0809193
:10045400430180FF07C0E0910E40F0910F403097B8
:1004640009F009958091420181FF0BC080914301FD
:1004740081FF07C0E0910C40F0910D40309709F0E6
:10048400099583E080934301FF91EF91BF91AF9170
:100494009F918F917F916F915F914F913F912F9198
:0E04A4000F900BBE0F900FBE0F901F9018957B
:1004B2001F920F920FB60F9211240BB60F922F9329
:1004C2003F934F935F936F937F938F939F93AF93DA
:1004D200BF93EF93FF938091060B80FF0AC0E091D8
:1004E2001040F0911140309709F0099581E0809316
:1004F200060B8091060B81FF0AC0E0911240F09139
:100502001340309709F0099582E08093060BFF9122
:10051200EF91BF91AF919F918F917F916F915F9179
:100522004F913F912F910F900BBE0F900FBE0F90E6
:040532001F90189569
:1005360080911C408F5F80931C4080911D408823D2
:1005460069F080911A408F5F80931A4080911A401B
:10055600863020F010921A4010921D40809118406B
:10056600882361F09091194081E089278093194092
:1005760080911940811184E60E94BB0480911C4041
:100586008A3028F010921C4081E0809316408091BA
:10059600174081110EC080911B408F5F80931B40D6
:1005A60080911B40883728F010921B4084E080938E
:0405B600164008954E
:1005BA00E0E0F2E086E0808B118A128A138A148ABC
:1005CA00158A81E084A710A211A212A213A214A272
:1005DA0015A216A217A215A617A610AA12AA12AE3B
:1005EA0013AE16AE17AE109240021092410214AA30
:1005FA0015AA168A178A1092420210924302109282
:10060A0048021092490216AA10924B0210924D0209
:10061A0010924C0210924A0210924F02109251020A
:0C062A001092500210924E0280E00895E1
:100636001F920F920FB60F9211240BB60F922F93A3
:100646003F934F935F936F937F938F939F93AF9354
:10065600BF93EF93FF937B9B05C0E0910840F09119
:1006660009400995799B05C0E0910640F091074045
:1006760009957A9B05C0E0910440F09105400995E3
:100686008FEF8FB9FF91EF91BF91AF919F918F91AE
:100696007F916F915F914F913F912F910F900BBE7C
:0A06A6000F900FBE0F901F901895E3
:1006B0001F920F920FB60F9211240BB60F922F9329
:1006C0003F934F935F936F937F938F939F93AF93DA
:1006D000BF93EF93FF9381E080930D06E09102407A
:1006E000F0910340309709F00995FF91EF91BF9188
:1006F000AF919F918F917F916F915F914F913F91BA
:100700002F910F900BBE0F900FBE0F901F9018955A
:100710001F920F920FB60F9211240BB60F922F93C8
:100720003F934F935F936F937F938F939F93AF9379
:10073000BF93EF93FF9382E080930D06E09100401A
:10074000F0910140309709F00995FF91EF91BF9129
:10075000AF919F918F917F916F915F914F913F9159
:100760002F910F900BBE0F900FBE0F901F901895FA
:100770001F920F920FB60F9211240BB60F922F9368
:100780003F934F935F936F937F938F939F93AF9319
:10079000BF93EF93FF93E0910A40F0910B403097A5
:1007A00009F0099581E080935301FF91EF91BF918A
:1007B000AF919F918F917F916F915F914F913F91F9
:1007C0002F910F900BBE0F900FBE0F901F9018959A
:1007D000E0E0F6E080818E7F808384858C7F848753
:1007E00083E08587109202401092034010920040EF
:1007F00010920140118298E0928313821482158234
:10080000808780E48187128681E083871686148A38
:0C081000158A128A138A84878083089559
:10081C00A1E21A2EAA1BBB1BFD010DC0AA1FBB1FF8
:10082C00EE1FFF1FA217B307E407F50720F0A21B6A
:10083C00B30BE40BF50B661F771F881F991F1A94D7
:10084C0069F760957095809590959B01AC01BD0101
:04085C00CF0108952B
:10086000E0E0FBE080818E7F80831182108614821D
:1008700081EA97E08487958712861386168280E640
:1008800095E0809312409093134081E695E0809329
:1008900010409093114083E0858385E08083089524
:1008A000E0E4F1E081818111FDCFE0E4F1E08FEF40
:1008B0009FE1848795871086118681E090E082878A
:1008C000938717828283158281E1808381898111D8
:0C08D000FDCFE0E4F1E0128A158A0895E3
:1008DC00E0E0FAE010A611A68DE490E082A793A7C1
:1008EC0014A615A610A211A223E221831282138250
:1008FC00148215821682178216861186128613862A
:0C090C0086A397A317868FE080830895D0
:1009180080911E408823A9F0809114409091154041
:1009280010921E40929582958F7089279F70892713
:10093800873E30F081E080931D4010921A40089560
:0409480080E00895AE
:10094C000E94CA010E945E010E94E8030E946E048C
:10095C000E9430040E94DD020E9450040E94DF04B9
:0A096C000E941E050E94ED0408958C
:10097600CF93DF93C0E0DAE02EA13FA1A82FB0E02D
:100986000E94D00424E630E040E050E00E940E04CD
:0A0996002AA73BA7DF91CF91089537
:1009A000A29FB001B39FC001A39F700D811D1124B0
:0E09B000911DB29F700D811D1124911D08959F
:1009BE0045E068ED80E590E00E94370540E068ED87
:0C09CE0081E590E00E94370580E008956C
:1009DA0040E068ED80E191E00E943705E0E1F1E056
:0A09EA0012821382789480E00895D1
:1009F40010921C40109219400E942C0510920A0B70
:0A0A040010920B0B0E9426050895C6
:100A0E00809110069091110680931440909315409A
:080A1E0081E080931E40089561
:100A2600EC010E9463050E946205CE010E946405E6
:060A3600CE010E945B05E9
:100A3C00E0EBF0E0148285E08083128280E0089580
:0C0A4C00E0E0FBE0808181608083089581
:0C0A5800E0E0FBE080818E7F8083089549
:0A0A64008093024090930340089530
:0A0A6E001BBEFC0164BF4083089525
:0A0A78008093044090930540089518
:0A0A82008F938FEF83B98F911895C1
:0A0A8C008F938FEF8BB98F911895AF
:0A0A96008F938FEF87BB8F911895A7
:0A0AA00080931040909311400895D8
:080AAA0082E0809316400895DC
:040AB2000C940000A0
:040AB6000E948A0010
:020ABA0008959D
:020ABC0008959B
:020ABE00089599
:020AC000089597
:020AC200089595
:020AC400089593
:020AC600089591
:020AC80008958F
:02000004008278
:090000000000000000C808000027
:00000001FF
