:100000000C9486000C9455060C9455060C945506D9
:100010000C9455060C94C7020C9465040C94550678
:100020000C9438060C9455060C9455060C94550601
:100030000C9455060C9455060C940E030C9455061E
:100040000C9455060C9455060C9455060C945506C4
:100050000C9455060C9455060C9455060C945506B4
:100060000C9492030C9455060C9405040C943504DE
:100070000C9455060C9455060C943D060C945506AC
:100080000C9455060C9455060C9455060C94470692
:100090000C9455060C9455060C9455060C94550674
:1000A0000C9455060C9455060C9455060C94550664
:1000B0000C9455060C94CF030C9442060C945506F0
:1000C0000C9455060C9455060C9455060C94550644
:1000D0000C9455060C9455060C9455060C94550634
:1000E0000C9455060C9455060C9455060C94550624
:1000F0000C94550640004010000CCC40104032805B
:1001000040324034000CDC4034403F80809101108C
:100110008F7C8060806898ED94BF809301101124DB
:100120001FBECFEFCDBFDFE7DEBFE4EFF0E041E081
:1001300019C0B791A79137912791079107FD0EC07C
:1001400097918791EF01F92FE82F0BBF07900D9240
:10015000A217B307D9F7FE011BBE04C01D92A21758
:10016000B307E1F7EC30F40721F70E94BB000C94D1
:060170000406F894FFCF25
:100176000E94890588EF95E00E94290680E593E0B4
:100186000E944C0681E596E00E9433060E941D06F9
:1001960010920A0B10920B0B80E00E94A0050E94A1
:1001A600170610923B406894DD24D1F80F2EF3E039
:1001B600EF2EF02DFF24F39400E016E0C0E5D0E02A
:1001C60080913740813079F138F0823009F458C097
:1001D600833009F473C0F6CF80E00E94A005109228
:1001E60038400E94E804811114C080913640833063
:1001F60081F0843099F0823019F710923B4080915B
:100206003D4081117DC083C00E94DF0510923640BB
:10021600D7CF10923B4010923640D2CFE092374073
:1002260010923640CDCF84E60E94A0051092384049
:100236000E94E8048111E092364010923B40809182
:100246003640823031F0833049F0813009F0B8CF42
:1002560010C00E94DF0510923640B2CFD0923740D0
:1002660010923D4010923A400E94DF0510923640AF
:10027600A7CF1092374010923B4010923640A0CF45
:10028600F09238400E94E80410923B40809136403C
:10029600813041F0823009F093CF0E94DF05109241
:1002A60036408ECF109237401092384080E00E9440
:1002B600A00510923B401092364082CF80E00E940B
:1002C600A00510923840F8018281807F8D6082837C
:1002D600109236408881897F846088838881816016
:1002E60088837894889588818E7F88838281807FB1
:1002F600828310923B4010923C401092374060CF70
:10030600D092374010923D4010923A407DCFF09205
:0403160037407ACF23
:10031A000F931F93CF93DF9340E054E0FA011482C6
:10032A0020E234E061E0F901648380E494E0FC01B6
:10033A001482C0E6D4E01C82A0E8B4E014961C92B1
:10034A00149700EA14E0F8011482FA011082F90104
:10035A006083FC01108262E068831C92F8011082BB
:10036A00FA01108A118A128A138A148A158A168A3D
:10037A00178AF901108A118A128A138A148A158A2D
:10038A00168A178AFC01108A118A128A138A148A19
:10039A00158A168A178A188A198A6A8B1B8A1C8AEE
:1003AA001D8A1E8A1F8A50961C92509751961C923B
:1003BA00519752961C92529753961C925397549661
:1003CA001C92549755961C92559756961C9256977E
:1003DA0057961C92F801108A118A128A138A148A73
:1003EA00158A168A178AE0EEF5E0118611821082C4
:1003FA00148283E086831782108615821282138202
:10040A00128689E596E080931C4090931D408AE508
:10041A0096E080931A4090931B408BE596E0809378
:10042A001840909319408CE596E08093164090937B
:10043A0017408DE596E08093144090931540DF9124
:08044A00CF911F910F9108955D
:10045200E0E0F2E086E0808B118A128A138A148A25
:10046200158A81E084A710A211A212A213A214A2DB
:1004720015A216A217A215A616A617A610AA12AAA8
:1004820012AE13AE16AE17AE109240021092410297
:1004920014AA15AA168A178A1092420210924302CF
:1004A200109248021092490216AA108E118E10A6BE
:1004B20011A612A613A611AA14AE15AE10924402EA
:1004C2001092450217AA10AE10924B0210924D02E2
:1004D20010924C0210924A0210924F021092510254
:1004E2001092500210924E02109253021092550234
:0C04F200109254021092520280E0089513
:1004FE0040E068ED80E690E00E942E0640E068ED58
:10050E0081E690E00E942E0640E068ED88E790E0DC
:10051E000E942E064CE068ED88E690E00E942E06C2
:10052E0040E068ED89E690E00E942E0640E068ED1E
:10053E0080E790E00E942E0640E068ED8CE790E0A8
:10054E000E942E0640E068ED82E690E00E942E06A4
:10055E0040E068ED83E690E00E942E0640E068EDF4
:10056E0084E690E00E942E0640E068ED80E890E080
:10057E000E942E06E0E6F0E0858181FFFDCF089512
:10058E001F920F920FB60F9211240BB60F922F934C
:10059E003F934F935F936F937F938F939F93AF93FD
:1005AE00BF93EF93FF938091420180FF0BC0809128
:1005BE00430180FF07C0E0912240F0912340309725
:1005CE0009F009958091420181FF0BC08091430192
:1005DE0081FF07C0E0912040F0912140309709F053
:1005EE00099583E080934301FF91EF91BF91AF9105
:1005FE009F918F917F916F915F914F913F912F912D
:0E060E000F900BBE0F900FBE0F901F9018950F
:10061C001F920F920FB60F9211240BB60F922F93BD
:10062C003F934F935F936F937F938F939F93AF936E
:10063C00BF93EF93FF938091060B80FF0AC0E0916C
:10064C002440F0912540309709F0099581E0809382
:10065C00060B8091060B81FF0AC0E0912640F091B9
:10066C002740309709F0099582E08093060BFF91A3
:10067C00EF91BF91AF919F918F917F916F915F910E
:10068C004F913F912F910F900BBE0F900FBE0F907B
:04069C001F901895FE
:1006A00080913C408F5F80933C4080913D40882307
:1006B00069F080913A408F5F80933A4080913A4050
:1006C000863020F010923A4010923D4080913840A0
:1006D000882361F09091394081E0892780933940E7
:1006E00080913940811184E60E94A00580913C40B0
:1006F0008A3028F010923C4081E08093364080910F
:10070000374081110EC080913B408F5F80933B400A
:1007100080913B40883728F010923B4084E08093E2
:0407200036400895C2
:100724001F920F920FB60F9211240BB60F922F93B4
:100734003F934F935F936F937F938F939F93AF9365
:10074400BF93EF93FF93799B05C0E0911C40F09118
:100754001D400995789B05C0E0911640F091174023
:1007640009957A9B05C0E0911440F09115400995D4
:100774008FEF8FB9FF91EF91BF91AF919F918F91BF
:100784007F916F915F914F913F912F910F900BBE8D
:0A0794000F900FBE0F901F901895F4
:10079E001F920F920FB60F9211240BB60F922F933A
:1007AE003F934F935F936F937F938F939F93AF93EB
:1007BE00BF93EF93FF93399B05C0E0911A40F091E0
:1007CE001B400995389B05C0E0911840F0911940E7
:1007DE0009958FEF87B9FF91EF91BF91AF919F91DF
:1007EE008F917F916F915F914F913F912F910F90CC
:0C07FE000BBE0F900FBE0F901F901895BF
:10080A001F920F920FB60F9211240BB60F922F93CD
:10081A003F934F935F936F937F938F939F93AF937E
:10082A00BF93EF93FF9381E080930D06E09112400E
:10083A00F0911340309709F00995FF91EF91BF911C
:10084A00AF919F918F917F916F915F914F913F915E
:10085A002F910F900BBE0F900FBE0F901F901895FF
:10086A001F920F920FB60F9211240BB60F922F936D
:10087A003F934F935F936F937F938F939F93AF931E
:10088A00BF93EF93FF9382E080930D06E0911040AF
:10089A00F0911140309709F00995FF91EF91BF91BE
:1008AA00AF919F918F917F916F915F914F913F91FE
:1008BA002F910F900BBE0F900FBE0F901F9018959F
:1008CA001F920F920FB60F9211240BB60F922F930D
:1008DA003F934F935F936F937F938F939F93AF93BE
:1008EA00BF93EF93FF93E0911E40F0911F40309722
:1008FA0009F0099581E080935301FF91EF91BF912F
:10090A00AF919F918F917F916F915F914F913F919D
:10091A002F910F900BBE0F900FBE0F901F9018953E
:10092A00E0E6F8E08AE890E080879187158280EC1B
:10093A00868383E08783138614861686158680E667
:10094A0096E080932C4090932D4081E696E0809328
:10095A002A4090932B4082E696E080932840909319
:10096A00294010922E4010922F40E0913240F0918F
:0C097A00334080E090E480839183089576
:10098600E0E0F6E080818E7F808384858C7F84879B
:1009960083E0858710921240109213401092104007
:1009A60010921140118212821382148215821086CF
:1009B60080E48187128681E083871686148A158AE9
:0A09C600128A138A84878083089543
:1009D00080913E408823E9F02091304030913140B1
:1009E000329522952F7023273F702327922F109244
:1009F0003E40E0E6F8E0848185FFFDCF2093620869
:100A0000933830F081E080933D4010923A40089551
:040A100080E00895E5
:100A1400A1E21A2EAA1BBB1BFD010DC0AA1FBB1FFE
:100A2400EE1FFF1FA217B307E407F50720F0A21B70
:100A3400B30BE40BF50B661F771F881F991F1A94DD
:100A440069F760957095809590959B01AC01BD0107
:040A5400CF01089531
:100A5800E0E0FBE080818E7F808311821086148223
:100A680081EA97E0848795871286138616828EE539
:100A780096E080932640909327408FE596E08093F8
:100A880024409093254081E0858385E08083089504
:100A9800E0E4F1E081818111FDCFE0E4F1E08FEF46
:100AA80097E0848795871086118683E090E0828797
:100AB8009387178281E08283158281E2808381890E
:0E0AC8008111FDCFE0E4F1E0128A158A089555
:100AD600E0E0FAE010A611A68DE490E082A793A7C5
:100AE60014A615A610A211A223E221831282138254
:100AF600148215821682178216861186128613862E
:0C0B060086A397A317868FE080830895D4
:100B12000E947F020E948D010E94C3040E946B0505
:100B22000E942C050E9429020E944C050E94C405C5
:0E0B32000E9495040E940F060E94D2050895AD
:100B4000CF93DF93C0E0DAE02EA13FA1A82FB0E061
:100B50000E94B50524E630E040E050E00E940A051E
:0A0B60002AA73BA7DF91CF9108956B
:100B6A00A29FB001B39FC001A39F700D811D1124E4
:0E0B7A00911DB29F700D811D1124911D0895D3
:100B880045E068ED80E590E00E942E0640E068EDC3
:0C0B980081E590E00E942E0680E00895A8
:100BA40040E068ED80E191E00E942E06E0E1F1E092
:0A0BB40012821382789480E0089505
:100BBE0010923C40109239400E941D0610920A0B72
:0A0BCE0010920B0B0E941706089509
:100BD800CF93C82F0E9423068823E1F3C0936208AD
:080BE80080E090E0CF91089538
:100BF000809110069091110680933040909331407F
:080C000081E080933E4008955D
:100C0800EC010E9464060E946306CE010E946506FC
:060C1800CE010E94570608
:100C1E00E0EBF0E0148285E08083128280E008959C
:0C0C2E00E0E0FBE080818160808308959D
:0C0C3A00E0E0FBE080818E7F8083089565
:0C0C46008091640885FB882780F90895E0
:0A0C52008093124090931340089520
:0A0C5C001BBEFC0164BF4083089535
:0A0C66008093144090931540089508
:0A0C70008F938FEF83B98F911895D1
:0A0C7A008F938FEF8BB98F911895BF
:0A0C84008F938FEF83BB8F911895BB
:0A0C8E008F938FEF87BB8F911895AD
:0A0C980080932440909325400895B6
:080CA20082E0809336400895C2
:040CAA000C940000A6
:040CAE000E94B900E7
:020CB2000895A3
:020CB4000895A1
:020CB60008959F
:020CB80008959D
:020CBA0008959B
:020CBC00089599
:020CBE00089597
:020CC000089595
:020CC200089593
:020CC400089591
:020CC60008958F
:020CC80008958D
:020CCA0008958B
:100CCC00030000000000000000000000EC05000024
:020CDC003440A2
:02000004008278
:090000000000000000C00800002F
:00000001FF
